{
  "_format": "hh-sol-artifact-1",
  "contractName": "Stakeable",
  "sourceName": "contracts/Stakeable.sol",
  "abi": [
    {
      "inputs": [
        {
          "internalType": "address",
          "name": "_timelock",
          "type": "address"
        },
        {
          "internalType": "address[]",
          "name": "vestingAddresses",
          "type": "address[]"
        },
        {
          "internalType": "uint256[]",
          "name": "vestingAmounts",
          "type": "uint256[]"
        }
      ],
      "stateMutability": "nonpayable",
      "type": "constructor"
    },
    {
      "anonymous": false,
      "inputs": [
        {
          "indexed": true,
          "internalType": "address",
          "name": "owner",
          "type": "address"
        },
        {
          "indexed": true,
          "internalType": "address",
          "name": "spender",
          "type": "address"
        },
        {
          "indexed": false,
          "internalType": "uint256",
          "name": "value",
          "type": "uint256"
        }
      ],
      "name": "Approval",
      "type": "event"
    },
    {
      "anonymous": false,
      "inputs": [
        {
          "indexed": true,
          "internalType": "address",
          "name": "authorizer",
          "type": "address"
        },
        {
          "indexed": true,
          "internalType": "bytes32",
          "name": "nonce",
          "type": "bytes32"
        }
      ],
      "name": "AuthorizationUsed",
      "type": "event"
    },
    {
      "anonymous": false,
      "inputs": [
        {
          "indexed": true,
          "internalType": "address",
          "name": "from",
          "type": "address"
        },
        {
          "indexed": true,
          "internalType": "address",
          "name": "to",
          "type": "address"
        },
        {
          "indexed": false,
          "internalType": "uint256",
          "name": "value",
          "type": "uint256"
        }
      ],
      "name": "Transfer",
      "type": "event"
    },
    {
      "inputs": [],
      "name": "PERMIT_TYPEHASH",
      "outputs": [
        {
          "internalType": "bytes32",
          "name": "",
          "type": "bytes32"
        }
      ],
      "stateMutability": "view",
      "type": "function"
    },
    {
      "inputs": [],
      "name": "TRANSFER_WITH_AUTHORIZATION_TYPEHASH",
      "outputs": [
        {
          "internalType": "bytes32",
          "name": "",
          "type": "bytes32"
        }
      ],
      "stateMutability": "view",
      "type": "function"
    },
    {
      "inputs": [
        {
          "internalType": "address",
          "name": "owner",
          "type": "address"
        },
        {
          "internalType": "address",
          "name": "spender",
          "type": "address"
        }
      ],
      "name": "allowance",
      "outputs": [
        {
          "internalType": "uint256",
          "name": "",
          "type": "uint256"
        }
      ],
      "stateMutability": "view",
      "type": "function"
    },
    {
      "inputs": [
        {
          "internalType": "address",
          "name": "spender",
          "type": "address"
        },
        {
          "internalType": "uint256",
          "name": "amount",
          "type": "uint256"
        }
      ],
      "name": "approve",
      "outputs": [
        {
          "internalType": "bool",
          "name": "",
          "type": "bool"
        }
      ],
      "stateMutability": "nonpayable",
      "type": "function"
    },
    {
      "inputs": [
        {
          "internalType": "address",
          "name": "",
          "type": "address"
        },
        {
          "internalType": "bytes32",
          "name": "",
          "type": "bytes32"
        }
      ],
      "name": "authorizationState",
      "outputs": [
        {
          "internalType": "bool",
          "name": "",
          "type": "bool"
        }
      ],
      "stateMutability": "view",
      "type": "function"
    },
    {
      "inputs": [
        {
          "internalType": "address",
          "name": "account",
          "type": "address"
        }
      ],
      "name": "balanceOf",
      "outputs": [
        {
          "internalType": "uint256",
          "name": "",
          "type": "uint256"
        }
      ],
      "stateMutability": "view",
      "type": "function"
    },
    {
      "inputs": [
        {
          "internalType": "uint256",
          "name": "amount",
          "type": "uint256"
        }
      ],
      "name": "burn",
      "outputs": [],
      "stateMutability": "nonpayable",
      "type": "function"
    },
    {
      "inputs": [
        {
          "internalType": "address",
          "name": "account",
          "type": "address"
        },
        {
          "internalType": "uint256",
          "name": "amount",
          "type": "uint256"
        }
      ],
      "name": "burnFrom",
      "outputs": [],
      "stateMutability": "nonpayable",
      "type": "function"
    },
    {
      "inputs": [],
      "name": "decimals",
      "outputs": [
        {
          "internalType": "uint8",
          "name": "",
          "type": "uint8"
        }
      ],
      "stateMutability": "view",
      "type": "function"
    },
    {
      "inputs": [
        {
          "internalType": "address",
          "name": "spender",
          "type": "address"
        },
        {
          "internalType": "uint256",
          "name": "subtractedValue",
          "type": "uint256"
        }
      ],
      "name": "decreaseAllowance",
      "outputs": [
        {
          "internalType": "bool",
          "name": "",
          "type": "bool"
        }
      ],
      "stateMutability": "nonpayable",
      "type": "function"
    },
    {
      "inputs": [],
      "name": "getChainId",
      "outputs": [
        {
          "internalType": "uint256",
          "name": "chainId",
          "type": "uint256"
        }
      ],
      "stateMutability": "view",
      "type": "function"
    },
    {
      "inputs": [],
      "name": "getDomainSeparator",
      "outputs": [
        {
          "internalType": "bytes32",
          "name": "",
          "type": "bytes32"
        }
      ],
      "stateMutability": "view",
      "type": "function"
    },
    {
      "inputs": [
        {
          "internalType": "address",
          "name": "spender",
          "type": "address"
        },
        {
          "internalType": "uint256",
          "name": "addedValue",
          "type": "uint256"
        }
      ],
      "name": "increaseAllowance",
      "outputs": [
        {
          "internalType": "bool",
          "name": "",
          "type": "bool"
        }
      ],
      "stateMutability": "nonpayable",
      "type": "function"
    },
    {
      "inputs": [
        {
          "internalType": "address",
          "name": "to",
          "type": "address"
        },
        {
          "internalType": "uint256",
          "name": "value",
          "type": "uint256"
        }
      ],
      "name": "mint",
      "outputs": [],
      "stateMutability": "nonpayable",
      "type": "function"
    },
    {
      "inputs": [],
      "name": "name",
      "outputs": [
        {
          "internalType": "string",
          "name": "",
          "type": "string"
        }
      ],
      "stateMutability": "view",
      "type": "function"
    },
    {
      "inputs": [
        {
          "internalType": "address",
          "name": "",
          "type": "address"
        }
      ],
      "name": "nonces",
      "outputs": [
        {
          "internalType": "uint256",
          "name": "",
          "type": "uint256"
        }
      ],
      "stateMutability": "view",
      "type": "function"
    },
    {
      "inputs": [
        {
          "internalType": "address",
          "name": "owner",
          "type": "address"
        },
        {
          "internalType": "address",
          "name": "spender",
          "type": "address"
        },
        {
          "internalType": "uint256",
          "name": "value",
          "type": "uint256"
        },
        {
          "internalType": "uint256",
          "name": "deadline",
          "type": "uint256"
        },
        {
          "internalType": "uint8",
          "name": "v",
          "type": "uint8"
        },
        {
          "internalType": "bytes32",
          "name": "r",
          "type": "bytes32"
        },
        {
          "internalType": "bytes32",
          "name": "s",
          "type": "bytes32"
        }
      ],
      "name": "permit",
      "outputs": [],
      "stateMutability": "nonpayable",
      "type": "function"
    },
    {
      "inputs": [],
      "name": "symbol",
      "outputs": [
        {
          "internalType": "string",
          "name": "",
          "type": "string"
        }
      ],
      "stateMutability": "view",
      "type": "function"
    },
    {
      "inputs": [],
      "name": "timelock",
      "outputs": [
        {
          "internalType": "address",
          "name": "",
          "type": "address"
        }
      ],
      "stateMutability": "view",
      "type": "function"
    },
    {
      "inputs": [],
      "name": "totalSupply",
      "outputs": [
        {
          "internalType": "uint256",
          "name": "",
          "type": "uint256"
        }
      ],
      "stateMutability": "view",
      "type": "function"
    },
    {
      "inputs": [
        {
          "internalType": "address",
          "name": "recipient",
          "type": "address"
        },
        {
          "internalType": "uint256",
          "name": "amount",
          "type": "uint256"
        }
      ],
      "name": "transfer",
      "outputs": [
        {
          "internalType": "bool",
          "name": "",
          "type": "bool"
        }
      ],
      "stateMutability": "nonpayable",
      "type": "function"
    },
    {
      "inputs": [
        {
          "internalType": "address",
          "name": "sender",
          "type": "address"
        },
        {
          "internalType": "address",
          "name": "recipient",
          "type": "address"
        },
        {
          "internalType": "uint256",
          "name": "amount",
          "type": "uint256"
        }
      ],
      "name": "transferFrom",
      "outputs": [
        {
          "internalType": "bool",
          "name": "",
          "type": "bool"
        }
      ],
      "stateMutability": "nonpayable",
      "type": "function"
    },
    {
      "inputs": [
        {
          "internalType": "address",
          "name": "from",
          "type": "address"
        },
        {
          "internalType": "address",
          "name": "to",
          "type": "address"
        },
        {
          "internalType": "uint256",
          "name": "value",
          "type": "uint256"
        },
        {
          "internalType": "uint256",
          "name": "validAfter",
          "type": "uint256"
        },
        {
          "internalType": "uint256",
          "name": "validBefore",
          "type": "uint256"
        },
        {
          "internalType": "bytes32",
          "name": "nonce",
          "type": "bytes32"
        },
        {
          "internalType": "uint8",
          "name": "v",
          "type": "uint8"
        },
        {
          "internalType": "bytes32",
          "name": "r",
          "type": "bytes32"
        },
        {
          "internalType": "bytes32",
          "name": "s",
          "type": "bytes32"
        }
      ],
      "name": "transferWithAuthorization",
      "outputs": [],
      "stateMutability": "nonpayable",
      "type": "function"
    },
    {
      "inputs": [
        {
          "internalType": "address",
          "name": "newMinter",
          "type": "address"
        }
      ],
      "name": "updateMinter",
      "outputs": [],
      "stateMutability": "nonpayable",
      "type": "function"
    }
  ],
  "bytecode": "0x608060405234801561001057600080fd5b50600436106101585760003560e01c806379cc6790116100c3578063d33219b41161007c578063d33219b4146103ef578063d505accf1461040d578063dd62ed3e14610429578063e3ee160e14610459578063e94a010214610475578063ed24911d146104a557610158565b806379cc6790146103075780637ecebe001461032357806395d89b4114610353578063a0cc6a6814610371578063a457c2d71461038f578063a9059cbb146103bf57610158565b80633408e470116101155780633408e47014610235578063395093511461025357806340c10f191461028357806342966c681461029f5780634eb03f6e146102bb57806370a08231146102d757610158565b806306fdde031461015d578063095ea7b31461017b57806318160ddd146101ab57806323b872dd146101c957806330adf81f146101f9578063313ce56714610217575b600080fd5b6101656104c3565b604051610172919061218b565b60405180910390f35b61019560048036038101906101909190611c1d565b610555565b6040516101a29190611fed565b60405180910390f35b6101b3610573565b6040516101c091906123cd565b60405180910390f35b6101e360048036038101906101de9190611a1e565b61057d565b6040516101f09190611fed565b60405180910390f35b610201610675565b60405161020e9190612008565b60405180910390f35b61021f61069c565b60405161022c91906123e8565b60405180910390f35b61023d6106a5565b60405161024a91906123cd565b60405180910390f35b61026d60048036038101906102689190611c1d565b6106ad565b60405161027a9190611fed565b60405180910390f35b61029d60048036038101906102989190611c1d565b610759565b005b6102b960048036038101906102b49190611c5d565b610767565b005b6102d560048036038101906102d091906119b1565b61077b565b005b6102f160048036038101906102ec91906119b1565b61089a565b6040516102fe91906123cd565b60405180910390f35b610321600480360381019061031c9190611c1d565b6108e2565b005b61033d600480360381019061033891906119b1565b61095d565b60405161034a91906123cd565b60405180910390f35b61035b610975565b604051610368919061218b565b60405180910390f35b610379610a07565b6040516103869190612008565b60405180910390f35b6103a960048036038101906103a49190611c1d565b610a2e565b6040516103b69190611fed565b60405180910390f35b6103d960048036038101906103d49190611c1d565b610b19565b6040516103e69190611fed565b60405180910390f35b6103f7610b37565b6040516104049190611fd2565b60405180910390f35b61042760048036038101906104229190611b3b565b610b5d565b005b610443600480360381019061043e91906119de565b610ce8565b60405161045091906123cd565b60405180910390f35b610473600480360381019061046e9190611a71565b610d6f565b005b61048f600480360381019061048a9190611bdd565b610fbc565b60405161049c9190611fed565b60405180910390f35b6104ad610feb565b6040516104ba9190612008565b60405180910390f35b6060600380546104d290612546565b80601f01602080910402602001604051908101604052809291908181526020018280546104fe90612546565b801561054b5780601f106105205761010080835404028352916020019161054b565b820191906000526020600020905b81548152906001019060200180831161052e57829003601f168201915b5050505050905090565b6000610569610562611091565b8484611099565b6001905092915050565b6000600254905090565b600061058a848484611264565b6000600160008673ffffffffffffffffffffffffffffffffffffffff1673ffffffffffffffffffffffffffffffffffffffff16815260200190815260200160002060006105d5611091565b73ffffffffffffffffffffffffffffffffffffffff1673ffffffffffffffffffffffffffffffffffffffff16815260200190815260200160002054905082811015610655576040517f08c379a000000000000000000000000000000000000000000000000000000000815260040161064c9061228d565b60405180910390fd5b61066985610661611091565b858403611099565b60019150509392505050565b7f6e71edae12b1b97f4d1f60370fef10105fa2faae0126114a169c64845d6126c960001b81565b60006012905090565b600046905090565b600061074f6106ba611091565b8484600160006106c8611091565b73ffffffffffffffffffffffffffffffffffffffff1673ffffffffffffffffffffffffffffffffffffffff16815260200190815260200160002060008873ffffffffffffffffffffffffffffffffffffffff1673ffffffffffffffffffffffffffffffffffffffff1681526020019081526020016000205461074a919061242a565b611099565b6001905092915050565b61076382826114e5565b5050565b610778610772611091565b82611645565b50565b600660149054906101000a900460ff16156107cb576040517f08c379a00000000000000000000000000000000000000000000000000000000081526004016107c2906122cd565b60405180910390fd5b600073ffffffffffffffffffffffffffffffffffffffff168173ffffffffffffffffffffffffffffffffffffffff16141561083b576040517f08c379a0000000000000000000000000000000000000000000000000000000008152600401610832906121ed565b60405180910390fd5b80600660006101000a81548173ffffffffffffffffffffffffffffffffffffffff021916908373ffffffffffffffffffffffffffffffffffffffff1602179055506001600660146101000a81548160ff02191690831515021790555050565b60008060008373ffffffffffffffffffffffffffffffffffffffff1673ffffffffffffffffffffffffffffffffffffffff168152602001908152602001600020549050919050565b60006108f5836108f0611091565b610ce8565b90508181101561093a576040517f08c379a0000000000000000000000000000000000000000000000000000000008152600401610931906122ad565b60405180910390fd5b61094e83610946611091565b848403611099565b6109588383611645565b505050565b60076020528060005260406000206000915090505481565b60606004805461098490612546565b80601f01602080910402602001604051908101604052809291908181526020018280546109b090612546565b80156109fd5780601f106109d2576101008083540402835291602001916109fd565b820191906000526020600020905b8154815290600101906020018083116109e057829003601f168201915b5050505050905090565b7f7c7c6cdb67a18743f49ec6fa9b35f50d52ed05cbed4cc592e13b44501c1a226760001b81565b60008060016000610a3d611091565b73ffffffffffffffffffffffffffffffffffffffff1673ffffffffffffffffffffffffffffffffffffffff16815260200190815260200160002060008573ffffffffffffffffffffffffffffffffffffffff1673ffffffffffffffffffffffffffffffffffffffff16815260200190815260200160002054905082811015610afa576040517f08c379a0000000000000000000000000000000000000000000000000000000008152600401610af19061238d565b60405180910390fd5b610b0e610b05611091565b85858403611099565b600191505092915050565b6000610b2d610b26611091565b8484611264565b6001905092915050565b600560009054906101000a900473ffffffffffffffffffffffffffffffffffffffff1681565b42841015610ba0576040517f08c379a0000000000000000000000000000000000000000000000000000000008152600401610b979061226d565b60405180910390fd5b60007f6e71edae12b1b97f4d1f60370fef10105fa2faae0126114a169c64845d6126c960001b888888600760008d73ffffffffffffffffffffffffffffffffffffffff1673ffffffffffffffffffffffffffffffffffffffff1681526020019081526020016000205489604051602001610c1f96959493929190612023565b6040516020818303038152906040528051906020012090506001600760008a73ffffffffffffffffffffffffffffffffffffffff1673ffffffffffffffffffffffffffffffffffffffff16815260200190815260200160002054610c83919061242a565b600760008a73ffffffffffffffffffffffffffffffffffffffff1673ffffffffffffffffffffffffffffffffffffffff16815260200190815260200160002081905550610cd3888286868661181c565b610cde888888611099565b5050505050505050565b6000600160008473ffffffffffffffffffffffffffffffffffffffff1673ffffffffffffffffffffffffffffffffffffffff16815260200190815260200160002060008373ffffffffffffffffffffffffffffffffffffffff1673ffffffffffffffffffffffffffffffffffffffff16815260200190815260200160002054905092915050565b854211610db1576040517f08c379a0000000000000000000000000000000000000000000000000000000008152600401610da89061230d565b60405180910390fd5b844210610df3576040517f08c379a0000000000000000000000000000000000000000000000000000000008152600401610dea9061226d565b60405180910390fd5b600860008a73ffffffffffffffffffffffffffffffffffffffff1673ffffffffffffffffffffffffffffffffffffffff168152602001908152602001600020600085815260200190815260200160002060009054906101000a900460ff1615610e91576040517f08c379a0000000000000000000000000000000000000000000000000000000008152600401610e889061236d565b60405180910390fd5b60007f7c7c6cdb67a18743f49ec6fa9b35f50d52ed05cbed4cc592e13b44501c1a226760001b8a8a8a8a8a8a604051602001610ed39796959493929190612084565b604051602081830303815290604052805190602001209050610ef88a8286868661181c565b6001600860008c73ffffffffffffffffffffffffffffffffffffffff1673ffffffffffffffffffffffffffffffffffffffff168152602001908152602001600020600087815260200190815260200160002060006101000a81548160ff021916908315150217905550848a73ffffffffffffffffffffffffffffffffffffffff167f98de503528ee59b575ef0c0a2576a82497bfc029a5685b209e9ec333479b10a560405160405180910390a3610fb08a8a8a611264565b50505050505050505050565b60086020528160005260406000206020528060005260406000206000915091509054906101000a900460ff1681565b60007f8b73c3c69bb8fe3d512ecc4cf759cc79239f7b179b0ffacaa9a75d522b39400f60001b7f96f8699b9d60ee03e2ae096e7ed75448335015f6b0f67e4f1540d650607f9ed960001b7fc89efdaa54c0f20c7adf612882df0950f5a951637e0307cdcb4c672f298b8bc660001b6110616106a5565b306040516020016110769594939291906120f3565b60405160208183030381529060405280519060200120905090565b600033905090565b600073ffffffffffffffffffffffffffffffffffffffff168373ffffffffffffffffffffffffffffffffffffffff161415611109576040517f08c379a00000000000000000000000000000000000000000000000000000000081526004016111009061234d565b60405180910390fd5b600073ffffffffffffffffffffffffffffffffffffffff168273ffffffffffffffffffffffffffffffffffffffff161415611179576040517f08c379a00000000000000000000000000000000000000000000000000000000081526004016111709061220d565b60405180910390fd5b80600160008573ffffffffffffffffffffffffffffffffffffffff1673ffffffffffffffffffffffffffffffffffffffff16815260200190815260200160002060008473ffffffffffffffffffffffffffffffffffffffff1673ffffffffffffffffffffffffffffffffffffffff168152602001908152602001600020819055508173ffffffffffffffffffffffffffffffffffffffff168373ffffffffffffffffffffffffffffffffffffffff167f8c5be1e5ebec7d5bd14f71427d1e84f3dd0314c0f7b2291e5b200ac8c7c3b9258360405161125791906123cd565b60405180910390a3505050565b600073ffffffffffffffffffffffffffffffffffffffff168373ffffffffffffffffffffffffffffffffffffffff1614156112d4576040517f08c379a00000000000000000000000000000000000000000000000000000000081526004016112cb9061232d565b60405180910390fd5b600073ffffffffffffffffffffffffffffffffffffffff168273ffffffffffffffffffffffffffffffffffffffff161415611344576040517f08c379a000000000000000000000000000000000000000000000000000000000815260040161133b906121ad565b60405180910390fd5b61134f838383611953565b60008060008573ffffffffffffffffffffffffffffffffffffffff1673ffffffffffffffffffffffffffffffffffffffff168152602001908152602001600020549050818110156113d5576040517f08c379a00000000000000000000000000000000000000000000000000000000081526004016113cc9061222d565b60405180910390fd5b8181036000808673ffffffffffffffffffffffffffffffffffffffff1673ffffffffffffffffffffffffffffffffffffffff16815260200190815260200160002081905550816000808573ffffffffffffffffffffffffffffffffffffffff1673ffffffffffffffffffffffffffffffffffffffff1681526020019081526020016000206000828254611468919061242a565b925050819055508273ffffffffffffffffffffffffffffffffffffffff168473ffffffffffffffffffffffffffffffffffffffff167fddf252ad1be2c89b69c2b068fc378daa952ba7f163c4a11628f55a4df523b3ef846040516114cc91906123cd565b60405180910390a36114df848484611958565b50505050565b600073ffffffffffffffffffffffffffffffffffffffff168273ffffffffffffffffffffffffffffffffffffffff161415611555576040517f08c379a000000000000000000000000000000000000000000000000000000000815260040161154c906123ad565b60405180910390fd5b61156160008383611953565b8060026000828254611573919061242a565b92505081905550806000808473ffffffffffffffffffffffffffffffffffffffff1673ffffffffffffffffffffffffffffffffffffffff16815260200190815260200160002060008282546115c8919061242a565b925050819055508173ffffffffffffffffffffffffffffffffffffffff16600073ffffffffffffffffffffffffffffffffffffffff167fddf252ad1be2c89b69c2b068fc378daa952ba7f163c4a11628f55a4df523b3ef8360405161162d91906123cd565b60405180910390a361164160008383611958565b5050565b600073ffffffffffffffffffffffffffffffffffffffff168273ffffffffffffffffffffffffffffffffffffffff1614156116b5576040517f08c379a00000000000000000000000000000000000000000000000000000000081526004016116ac906122ed565b60405180910390fd5b6116c182600083611953565b60008060008473ffffffffffffffffffffffffffffffffffffffff1673ffffffffffffffffffffffffffffffffffffffff16815260200190815260200160002054905081811015611747576040517f08c379a000000000000000000000000000000000000000000000000000000000815260040161173e906121cd565b60405180910390fd5b8181036000808573ffffffffffffffffffffffffffffffffffffffff1673ffffffffffffffffffffffffffffffffffffffff16815260200190815260200160002081905550816002600082825461179e9190612480565b92505081905550600073ffffffffffffffffffffffffffffffffffffffff168373ffffffffffffffffffffffffffffffffffffffff167fddf252ad1be2c89b69c2b068fc378daa952ba7f163c4a11628f55a4df523b3ef8460405161180391906123cd565b60405180910390a361181783600084611958565b505050565b6000611826610feb565b85604051602001611838929190611f9b565b6040516020818303038152906040528051906020012090506000600182868686604051600081526020016040526040516118759493929190612146565b6020604051602081039080840390855afa158015611897573d6000803e3d6000fd5b505050602060405103519050600073ffffffffffffffffffffffffffffffffffffffff168173ffffffffffffffffffffffffffffffffffffffff161415801561190b57508673ffffffffffffffffffffffffffffffffffffffff168173ffffffffffffffffffffffffffffffffffffffff16145b61194a576040517f08c379a00000000000000000000000000000000000000000000000000000000081526004016119419061224d565b60405180910390fd5b50505050505050565b505050565b505050565b60008135905061196c81612a7a565b92915050565b60008135905061198181612a91565b92915050565b60008135905061199681612aa8565b92915050565b6000813590506119ab81612abf565b92915050565b6000602082840312156119c7576119c66125e0565b5b60006119d58482850161195d565b91505092915050565b600080604083850312156119f5576119f46125e0565b5b6000611a038582860161195d565b9250506020611a148582860161195d565b9150509250929050565b600080600060608486031215611a3757611a366125e0565b5b6000611a458682870161195d565b9350506020611a568682870161195d565b9250506040611a6786828701611987565b9150509250925092565b60008060008060008060008060006101208a8c031215611a9457611a936125e0565b5b6000611aa28c828d0161195d565b9950506020611ab38c828d0161195d565b9850506040611ac48c828d01611987565b9750506060611ad58c828d01611987565b9650506080611ae68c828d01611987565b95505060a0611af78c828d01611972565b94505060c0611b088c828d0161199c565b93505060e0611b198c828d01611972565b925050610100611b2b8c828d01611972565b9150509295985092959850929598565b600080600080600080600060e0888a031215611b5a57611b596125e0565b5b6000611b688a828b0161195d565b9750506020611b798a828b0161195d565b9650506040611b8a8a828b01611987565b9550506060611b9b8a828b01611987565b9450506080611bac8a828b0161199c565b93505060a0611bbd8a828b01611972565b92505060c0611bce8a828b01611972565b91505092959891949750929550565b60008060408385031215611bf457611bf36125e0565b5b6000611c028582860161195d565b9250506020611c1385828601611972565b9150509250929050565b60008060408385031215611c3457611c336125e0565b5b6000611c428582860161195d565b9250506020611c5385828601611987565b9150509250929050565b600060208284031215611c7357611c726125e0565b5b6000611c8184828501611987565b91505092915050565b611c93816124b4565b82525050565b611ca2816124c6565b82525050565b611cb1816124d2565b82525050565b611cc8611cc3826124d2565b612578565b82525050565b6000611cd982612403565b611ce3818561240e565b9350611cf3818560208601612513565b611cfc816125e5565b840191505092915050565b6000611d1460238361240e565b9150611d1f826125f6565b604082019050919050565b6000611d3760228361240e565b9150611d4282612645565b604082019050919050565b6000611d5a601e8361240e565b9150611d6582612694565b602082019050919050565b6000611d7d60228361240e565b9150611d88826126bd565b604082019050919050565b6000611da060028361241f565b9150611dab8261270c565b600282019050919050565b6000611dc360268361240e565b9150611dce82612735565b604082019050919050565b6000611de660198361240e565b9150611df182612784565b602082019050919050565b6000611e0960148361240e565b9150611e14826127ad565b602082019050919050565b6000611e2c60288361240e565b9150611e37826127d6565b604082019050919050565b6000611e4f60248361240e565b9150611e5a82612825565b604082019050919050565b6000611e7260228361240e565b9150611e7d82612874565b604082019050919050565b6000611e9560218361240e565b9150611ea0826128c3565b604082019050919050565b6000611eb8601a8361240e565b9150611ec382612912565b602082019050919050565b6000611edb60258361240e565b9150611ee68261293b565b604082019050919050565b6000611efe60248361240e565b9150611f098261298a565b604082019050919050565b6000611f2160198361240e565b9150611f2c826129d9565b602082019050919050565b6000611f4460258361240e565b9150611f4f82612a02565b604082019050919050565b6000611f67601f8361240e565b9150611f7282612a51565b602082019050919050565b611f86816124fc565b82525050565b611f9581612506565b82525050565b6000611fa682611d93565b9150611fb28285611cb7565b602082019150611fc28284611cb7565b6020820191508190509392505050565b6000602082019050611fe76000830184611c8a565b92915050565b60006020820190506120026000830184611c99565b92915050565b600060208201905061201d6000830184611ca8565b92915050565b600060c0820190506120386000830189611ca8565b6120456020830188611c8a565b6120526040830187611c8a565b61205f6060830186611f7d565b61206c6080830185611f7d565b61207960a0830184611f7d565b979650505050505050565b600060e082019050612099600083018a611ca8565b6120a66020830189611c8a565b6120b36040830188611c8a565b6120c06060830187611f7d565b6120cd6080830186611f7d565b6120da60a0830185611f7d565b6120e760c0830184611ca8565b98975050505050505050565b600060a0820190506121086000830188611ca8565b6121156020830187611ca8565b6121226040830186611ca8565b61212f6060830185611f7d565b61213c6080830184611c8a565b9695505050505050565b600060808201905061215b6000830187611ca8565b6121686020830186611f8c565b6121756040830185611ca8565b6121826060830184611ca8565b95945050505050565b600060208201905081810360008301526121a58184611cce565b905092915050565b600060208201905081810360008301526121c681611d07565b9050919050565b600060208201905081810360008301526121e681611d2a565b9050919050565b6000602082019050818103600083015261220681611d4d565b9050919050565b6000602082019050818103600083015261222681611d70565b9050919050565b6000602082019050818103600083015261224681611db6565b9050919050565b6000602082019050818103600083015261226681611dd9565b9050919050565b6000602082019050818103600083015261228681611dfc565b9050919050565b600060208201905081810360008301526122a681611e1f565b9050919050565b600060208201905081810360008301526122c681611e42565b9050919050565b600060208201905081810360008301526122e681611e65565b9050919050565b6000602082019050818103600083015261230681611e88565b9050919050565b6000602082019050818103600083015261232681611eab565b9050919050565b6000602082019050818103600083015261234681611ece565b9050919050565b6000602082019050818103600083015261236681611ef1565b9050919050565b6000602082019050818103600083015261238681611f14565b9050919050565b600060208201905081810360008301526123a681611f37565b9050919050565b600060208201905081810360008301526123c681611f5a565b9050919050565b60006020820190506123e26000830184611f7d565b92915050565b60006020820190506123fd6000830184611f8c565b92915050565b600081519050919050565b600082825260208201905092915050565b600081905092915050565b6000612435826124fc565b9150612440836124fc565b9250827fffffffffffffffffffffffffffffffffffffffffffffffffffffffffffffffff0382111561247557612474612582565b5b828201905092915050565b600061248b826124fc565b9150612496836124fc565b9250828210156124a9576124a8612582565b5b828203905092915050565b60006124bf826124dc565b9050919050565b60008115159050919050565b6000819050919050565b600073ffffffffffffffffffffffffffffffffffffffff82169050919050565b6000819050919050565b600060ff82169050919050565b60005b83811015612531578082015181840152602081019050612516565b83811115612540576000848401525b50505050565b6000600282049050600182168061255e57607f821691505b60208210811415612572576125716125b1565b5b50919050565b6000819050919050565b7f4e487b7100000000000000000000000000000000000000000000000000000000600052601160045260246000fd5b7f4e487b7100000000000000000000000000000000000000000000000000000000600052602260045260246000fd5b600080fd5b6000601f19601f8301169050919050565b7f45524332303a207472616e7366657220746f20746865207a65726f206164647260008201527f6573730000000000000000000000000000000000000000000000000000000000602082015250565b7f45524332303a206275726e20616d6f756e7420657863656564732062616c616e60008201527f6365000000000000000000000000000000000000000000000000000000000000602082015250565b7f50494c4f543a3a20494e56414c49445f4d494e5445525f414444524553530000600082015250565b7f45524332303a20617070726f766520746f20746865207a65726f20616464726560008201527f7373000000000000000000000000000000000000000000000000000000000000602082015250565b7f1901000000000000000000000000000000000000000000000000000000000000600082015250565b7f45524332303a207472616e7366657220616d6f756e742065786365656473206260008201527f616c616e63650000000000000000000000000000000000000000000000000000602082015250565b7f50494c4f543a3a20494e56414c49445f5349474e415455524500000000000000600082015250565b7f50494c4f543a3a20415554485f45585049524544000000000000000000000000600082015250565b7f45524332303a207472616e7366657220616d6f756e742065786365656473206160008201527f6c6c6f77616e6365000000000000000000000000000000000000000000000000602082015250565b7f45524332303a206275726e20616d6f756e74206578636565647320616c6c6f7760008201527f616e636500000000000000000000000000000000000000000000000000000000602082015250565b7f50494c4f543a3a204d494e5445525f414c52454144595f494e495449414c495a60008201527f4544000000000000000000000000000000000000000000000000000000000000602082015250565b7f45524332303a206275726e2066726f6d20746865207a65726f2061646472657360008201527f7300000000000000000000000000000000000000000000000000000000000000602082015250565b7f50494c4f543a3a20415554485f4e4f545f5945545f56414c4944000000000000600082015250565b7f45524332303a207472616e736665722066726f6d20746865207a65726f20616460008201527f6472657373000000000000000000000000000000000000000000000000000000602082015250565b7f45524332303a20617070726f76652066726f6d20746865207a65726f2061646460008201527f7265737300000000000000000000000000000000000000000000000000000000602082015250565b7f50494c4f543a3a20415554485f414c52454144595f5553454400000000000000600082015250565b7f45524332303a2064656372656173656420616c6c6f77616e63652062656c6f7760008201527f207a65726f000000000000000000000000000000000000000000000000000000602082015250565b7f45524332303a206d696e7420746f20746865207a65726f206164647265737300600082015250565b612a83816124b4565b8114612a8e57600080fd5b50565b612a9a816124d2565b8114612aa557600080fd5b50565b612ab1816124fc565b8114612abc57600080fd5b50565b612ac881612506565b8114612ad357600080fd5b5056fea2646970667358221220c4561fe491ff337b388eda1dcc5402d4ce2e3a7c93f2616a47170300b2cfb24764736f6c63430008070033",
  "deployedBytecode": "0x608060405234801561001057600080fd5b50600436106101515760003560e01c806379cc6790116100cd578063a9059cbb11610081578063bb4a1d3a11610066578063bb4a1d3a146102c6578063c881d35f146102f1578063dd62ed3e1461031157600080fd5b8063a9059cbb14610293578063aabedfd8146102a657600080fd5b806383c963da116100b257806383c963da1461025557806395d89b4114610278578063a457c2d71461028057600080fd5b806379cc67901461022f5780637acb77571461024257600080fd5b8063313ce5671161012457806342966c681161010957806342966c68146101de5780636c217a02146101f357806370a082311461020657600080fd5b8063313ce567146101bc57806339509351146101cb57600080fd5b806306fdde0314610156578063095ea7b31461017457806318160ddd1461019757806323b872dd146101a9575b600080fd5b61015e61034a565b60405161016b919061123c565b60405180910390f35b61018761018236600461119b565b6103dc565b604051901515815260200161016b565b6002545b60405190815260200161016b565b6101876101b736600461115f565b6103f2565b6040516012815260200161016b565b6101876101d936600461119b565b6104b6565b6101f16101ec3660046111e7565b6104f2565b005b6101f1610201366004611219565b6104ff565b61019b610214366004611111565b6001600160a01b031660009081526020819052604090205490565b6101f161023d36600461119b565b61078a565b6101f1610250366004611219565b610810565b610187610263366004611111565b60086020526000908152604090205460ff1681565b61015e610ab6565b61018761028e36600461119b565b610ac5565b6101876102a136600461119b565b610b76565b61019b6102b4366004611111565b60076020526000908152604090205481565b6005546102d9906001600160a01b031681565b6040516001600160a01b03909116815260200161016b565b61019b6102ff366004611111565b60066020526000908152604090205481565b61019b61031f36600461112c565b6001600160a01b03918216600090815260016020908152604080832093909416825291909152205490565b60606003805461035990611301565b80601f016020809104026020016040519081016040528092919081815260200182805461038590611301565b80156103d25780601f106103a7576101008083540402835291602001916103d2565b820191906000526020600020905b8154815290600101906020018083116103b557829003601f168201915b5050505050905090565b60006103e9338484610b83565b50600192915050565b60006103ff848484610ca7565b6001600160a01b03841660009081526001602090815260408083203384529091529020548281101561049e5760405162461bcd60e51b815260206004820152602860248201527f45524332303a207472616e7366657220616d6f756e742065786365656473206160448201527f6c6c6f77616e636500000000000000000000000000000000000000000000000060648201526084015b60405180910390fd5b6104ab8533858403610b83565b506001949350505050565b3360008181526001602090815260408083206001600160a01b038716845290915281205490916103e99185906104ed908690611291565b610b83565b6104fc3382610ea4565b50565b6005546001600160a01b03828116911614156106e85733600090815260066020526040902054808311156105815760405162461bcd60e51b8152602060048201526024808201527f43616e7420756e7374616b6520616d6f756e74206d6f7265207468656e207374604482015263185ad95960e21b6064820152608401610495565b600061058c60025490565b6005546040516370a0823160e01b815230600482015291925060009161061a9184916001600160a01b03909116906370a08231906024015b60206040518083038186803b1580156105dc57600080fd5b505afa1580156105f0573d6000803e3d6000fd5b505050506040513d601f19601f820116820180604052508101906106149190611200565b90610ff2565b905060006106288287611005565b3360009081526006602052604081208054929350889290919061064c9084906112ea565b9091555061065b9050866104f2565b60055460405163a9059cbb60e01b8152336004820152602481018390526001600160a01b039091169063a9059cbb90604401602060405180830381600087803b1580156106a757600080fd5b505af11580156106bb573d6000803e3d6000fd5b505050506040513d601f19601f820116820180604052508101906106df91906111c5565b50505050505050565b33600090815260076020526040902054808311156107545760405162461bcd60e51b8152602060048201526024808201527f43616e7420756e7374616b6520616d6f756e74206d6f7265207468656e207374604482015263185ad95960e21b6064820152608401610495565b33600090815260076020526040812080548592906107739084906112ea565b9091555061078390503384610b76565b50505b5050565b6000610796833361031f565b9050818110156107f45760405162461bcd60e51b8152602060048201526024808201527f45524332303a206275726e20616d6f756e74206578636565647320616c6c6f77604482015263616e636560e01b6064820152608401610495565b6108018333848403610b83565b61080b8383610ea4565b505050565b6005546001600160a01b0382811691161415610a0d576005546040516370a0823160e01b81523360048201526000916001600160a01b0316906370a082319060240160206040518083038186803b15801561086a57600080fd5b505afa15801561087e573d6000803e3d6000fd5b505050506040513d601f19601f820116820180604052508101906108a29190611200565b9050808311156108f45760405162461bcd60e51b815260206004820152601460248201527f696e73756666696369656e742062616c616e63650000000000000000000000006044820152606401610495565b60006108ff60025490565b905080610915576109103385611011565b610969565b6005546040516370a0823160e01b815230600482015260009161094c9184916001600160a01b0316906370a08231906024016105c4565b9050600061095a8287611005565b90506109663382611011565b50505b336000818152600660205260409081902086905560055490516323b872dd60e01b81526004810192909252306024830152604482018690526001600160a01b0316906323b872dd90606401602060405180830381600087803b1580156109ce57600080fd5b505af11580156109e2573d6000803e3d6000fd5b505050506040513d601f19601f82011682018060405250810190610a0691906111c5565b5050505050565b3360009081526020819052604090205480831115610a6d5760405162461bcd60e51b815260206004820152601460248201527f696e73756666696369656e742062616c616e63650000000000000000000000006044820152606401610495565b3360009081526007602052604081208054859290610a8c908490611291565b9091555050336000818152600860205260409020805460ff191660011790556107839030856103f2565b60606004805461035990611301565b3360009081526001602090815260408083206001600160a01b038616845290915281205482811015610b5f5760405162461bcd60e51b815260206004820152602560248201527f45524332303a2064656372656173656420616c6c6f77616e63652062656c6f7760448201527f207a65726f0000000000000000000000000000000000000000000000000000006064820152608401610495565b610b6c3385858403610b83565b5060019392505050565b60006103e9338484610ca7565b6001600160a01b038316610be55760405162461bcd60e51b8152602060048201526024808201527f45524332303a20617070726f76652066726f6d20746865207a65726f206164646044820152637265737360e01b6064820152608401610495565b6001600160a01b038216610c465760405162461bcd60e51b815260206004820152602260248201527f45524332303a20617070726f766520746f20746865207a65726f206164647265604482015261737360f01b6064820152608401610495565b6001600160a01b0383811660008181526001602090815260408083209487168084529482529182902085905590518481527f8c5be1e5ebec7d5bd14f71427d1e84f3dd0314c0f7b2291e5b200ac8c7c3b925910160405180910390a3505050565b6001600160a01b038316610d235760405162461bcd60e51b815260206004820152602560248201527f45524332303a207472616e736665722066726f6d20746865207a65726f20616460448201527f64726573730000000000000000000000000000000000000000000000000000006064820152608401610495565b6001600160a01b038216610d855760405162461bcd60e51b815260206004820152602360248201527f45524332303a207472616e7366657220746f20746865207a65726f206164647260448201526265737360e81b6064820152608401610495565b6001600160a01b03831660009081526020819052604090205481811015610e145760405162461bcd60e51b815260206004820152602660248201527f45524332303a207472616e7366657220616d6f756e742065786365656473206260448201527f616c616e636500000000000000000000000000000000000000000000000000006064820152608401610495565b6001600160a01b03808516600090815260208190526040808220858503905591851681529081208054849290610e4b908490611291565b92505081905550826001600160a01b0316846001600160a01b03167fddf252ad1be2c89b69c2b068fc378daa952ba7f163c4a11628f55a4df523b3ef84604051610e9791815260200190565b60405180910390a3610783565b6001600160a01b038216610f045760405162461bcd60e51b815260206004820152602160248201527f45524332303a206275726e2066726f6d20746865207a65726f206164647265736044820152607360f81b6064820152608401610495565b6001600160a01b03821660009081526020819052604090205481811015610f785760405162461bcd60e51b815260206004820152602260248201527f45524332303a206275726e20616d6f756e7420657863656564732062616c616e604482015261636560f01b6064820152608401610495565b6001600160a01b0383166000908152602081905260408120838303905560028054849290610fa79084906112ea565b90915550506040518281526000906001600160a01b038516907fddf252ad1be2c89b69c2b068fc378daa952ba7f163c4a11628f55a4df523b3ef9060200160405180910390a3505050565b6000610ffe82846112a9565b9392505050565b6000610ffe82846112cb565b61078682826001600160a01b03821661106c5760405162461bcd60e51b815260206004820152601f60248201527f45524332303a206d696e7420746f20746865207a65726f2061646472657373006044820152606401610495565b806002600082825461107e9190611291565b90915550506001600160a01b038216600090815260208190526040812080548392906110ab908490611291565b90915550506040518181526001600160a01b038316906000907fddf252ad1be2c89b69c2b068fc378daa952ba7f163c4a11628f55a4df523b3ef9060200160405180910390a35050565b80356001600160a01b038116811461110c57600080fd5b919050565b60006020828403121561112357600080fd5b610ffe826110f5565b6000806040838503121561113f57600080fd5b611148836110f5565b9150611156602084016110f5565b90509250929050565b60008060006060848603121561117457600080fd5b61117d846110f5565b925061118b602085016110f5565b9150604084013590509250925092565b600080604083850312156111ae57600080fd5b6111b7836110f5565b946020939093013593505050565b6000602082840312156111d757600080fd5b81518015158114610ffe57600080fd5b6000602082840312156111f957600080fd5b5035919050565b60006020828403121561121257600080fd5b5051919050565b6000806040838503121561122c57600080fd5b82359150611156602084016110f5565b600060208083528351808285015260005b818110156112695785810183015185820160400152820161124d565b8181111561127b576000604083870101525b50601f01601f1916929092016040019392505050565b600082198211156112a4576112a461133c565b500190565b6000826112c657634e487b7160e01b600052601260045260246000fd5b500490565b60008160001904831182151516156112e5576112e561133c565b500290565b6000828210156112fc576112fc61133c565b500390565b600181811c9082168061131557607f821691505b6020821081141561133657634e487b7160e01b600052602260045260246000fd5b50919050565b634e487b7160e01b600052601160045260246000fdfea164736f6c6343000806000a",
  "linkReferences": {},
  "deployedLinkReferences": {}
}